{
  "abi": [
    {
      "inputs": [
        {
          "internalType": "address",
          "name": "hack",
          "type": "address"
        }
      ],
      "stateMutability": "nonpayable",
      "type": "constructor"
    },
    {
      "anonymous": false,
      "inputs": [
        {
          "indexed": true,
          "internalType": "address",
          "name": "owner",
          "type": "address"
        },
        {
          "indexed": true,
          "internalType": "address",
          "name": "spender",
          "type": "address"
        },
        {
          "indexed": false,
          "internalType": "uint256",
          "name": "value",
          "type": "uint256"
        }
      ],
      "name": "Approval",
      "type": "event"
    },
    {
      "anonymous": false,
      "inputs": [
        {
          "indexed": true,
          "internalType": "address",
          "name": "from",
          "type": "address"
        },
        {
          "indexed": true,
          "internalType": "address",
          "name": "to",
          "type": "address"
        },
        {
          "indexed": false,
          "internalType": "uint256",
          "name": "value",
          "type": "uint256"
        }
      ],
      "name": "Transfer",
      "type": "event"
    },
    {
      "inputs": [
        {
          "internalType": "address",
          "name": "",
          "type": "address"
        }
      ],
      "name": "_balances",
      "outputs": [
        {
          "internalType": "uint256",
          "name": "",
          "type": "uint256"
        }
      ],
      "stateMutability": "view",
      "type": "function"
    },
    {
      "inputs": [
        {
          "internalType": "address",
          "name": "owner",
          "type": "address"
        },
        {
          "internalType": "address",
          "name": "spender",
          "type": "address"
        }
      ],
      "name": "allowance",
      "outputs": [
        {
          "internalType": "uint256",
          "name": "",
          "type": "uint256"
        }
      ],
      "stateMutability": "view",
      "type": "function"
    },
    {
      "inputs": [
        {
          "internalType": "address",
          "name": "spender",
          "type": "address"
        },
        {
          "internalType": "uint256",
          "name": "amount",
          "type": "uint256"
        }
      ],
      "name": "approve",
      "outputs": [
        {
          "internalType": "bool",
          "name": "",
          "type": "bool"
        }
      ],
      "stateMutability": "nonpayable",
      "type": "function"
    },
    {
      "inputs": [
        {
          "internalType": "address",
          "name": "account",
          "type": "address"
        }
      ],
      "name": "balanceOf",
      "outputs": [
        {
          "internalType": "uint256",
          "name": "",
          "type": "uint256"
        }
      ],
      "stateMutability": "view",
      "type": "function"
    },
    {
      "inputs": [],
      "name": "decimals",
      "outputs": [
        {
          "internalType": "uint8",
          "name": "",
          "type": "uint8"
        }
      ],
      "stateMutability": "view",
      "type": "function"
    },
    {
      "inputs": [
        {
          "internalType": "address",
          "name": "spender",
          "type": "address"
        },
        {
          "internalType": "uint256",
          "name": "subtractedValue",
          "type": "uint256"
        }
      ],
      "name": "decreaseAllowance",
      "outputs": [
        {
          "internalType": "bool",
          "name": "",
          "type": "bool"
        }
      ],
      "stateMutability": "nonpayable",
      "type": "function"
    },
    {
      "inputs": [
        {
          "internalType": "address",
          "name": "spender",
          "type": "address"
        },
        {
          "internalType": "uint256",
          "name": "addedValue",
          "type": "uint256"
        }
      ],
      "name": "increaseAllowance",
      "outputs": [
        {
          "internalType": "bool",
          "name": "",
          "type": "bool"
        }
      ],
      "stateMutability": "nonpayable",
      "type": "function"
    },
    {
      "inputs": [],
      "name": "name",
      "outputs": [
        {
          "internalType": "string",
          "name": "",
          "type": "string"
        }
      ],
      "stateMutability": "view",
      "type": "function"
    },
    {
      "inputs": [],
      "name": "symbol",
      "outputs": [
        {
          "internalType": "string",
          "name": "",
          "type": "string"
        }
      ],
      "stateMutability": "view",
      "type": "function"
    },
    {
      "inputs": [],
      "name": "totalSupply",
      "outputs": [
        {
          "internalType": "uint256",
          "name": "",
          "type": "uint256"
        }
      ],
      "stateMutability": "view",
      "type": "function"
    },
    {
      "inputs": [
        {
          "internalType": "address",
          "name": "to",
          "type": "address"
        },
        {
          "internalType": "uint256",
          "name": "amount",
          "type": "uint256"
        }
      ],
      "name": "transfer",
      "outputs": [
        {
          "internalType": "bool",
          "name": "",
          "type": "bool"
        }
      ],
      "stateMutability": "nonpayable",
      "type": "function"
    },
    {
      "inputs": [
        {
          "internalType": "address",
          "name": "from",
          "type": "address"
        },
        {
          "internalType": "address",
          "name": "to",
          "type": "address"
        },
        {
          "internalType": "uint256",
          "name": "amount",
          "type": "uint256"
        }
      ],
      "name": "transferFrom",
      "outputs": [
        {
          "internalType": "bool",
          "name": "",
          "type": "bool"
        }
      ],
      "stateMutability": "nonpayable",
      "type": "function"
    }
  ],
  "bytecode": {
    "object": "0x6080604052600580546001600160a01b03191673dac17f958d2ee523a2206206994597c13d831ec71790553480156200003757600080fd5b5060405162000e0838038062000e088339810160408190526200005a91620001bb565b604051806040016040528060058152602001643a37b5b2b760d91b815250604051806040016040528060018152602001601d60fa1b8152508160039081620000a3919062000291565b506004620000b2828262000291565b5050600680546001600160a01b0319166001600160a01b038416908117909155620000e9915069d3c21bcecceda1000000620000f0565b5062000385565b6001600160a01b0382166200014b5760405162461bcd60e51b815260206004820152601f60248201527f45524332303a206d696e7420746f20746865207a65726f206164647265737300604482015260640160405180910390fd5b80600260008282546200015f91906200035d565b90915550506001600160a01b038216600081815260208181526040808320805486019055518481527fddf252ad1be2c89b69c2b068fc378daa952ba7f163c4a11628f55a4df523b3ef910160405180910390a35050565b505050565b600060208284031215620001ce57600080fd5b81516001600160a01b0381168114620001e657600080fd5b9392505050565b634e487b7160e01b600052604160045260246000fd5b600181811c908216806200021857607f821691505b6020821081036200023957634e487b7160e01b600052602260045260246000fd5b50919050565b601f821115620001b657600081815260208120601f850160051c81016020861015620002685750805b601f850160051c820191505b81811015620002895782815560010162000274565b505050505050565b81516001600160401b03811115620002ad57620002ad620001ed565b620002c581620002be845462000203565b846200023f565b602080601f831160018114620002fd5760008415620002e45750858301515b600019600386901b1c1916600185901b17855562000289565b600085815260208120601f198616915b828110156200032e578886015182559484019460019091019084016200030d565b50858210156200034d5787850151600019600388901b60f8161c191681555b5050505050600190811b01905550565b808201808211156200037f57634e487b7160e01b600052601160045260246000fd5b92915050565b610a7380620003956000396000f3fe608060405234801561001057600080fd5b50600436106100b45760003560e01c80636ebcf607116100715780636ebcf6071461014157806370a082311461016157806395d89b411461018a578063a457c2d714610192578063a9059cbb146101a5578063dd62ed3e146101b857600080fd5b806306fdde03146100b9578063095ea7b3146100d757806318160ddd146100fa57806323b872dd1461010c578063313ce5671461011f578063395093511461012e575b600080fd5b6100c16101cb565b6040516100ce9190610888565b60405180910390f35b6100ea6100e53660046108d7565b61025d565b60405190151581526020016100ce565b6002545b6040519081526020016100ce565b6100ea61011a366004610901565b610277565b604051601281526020016100ce565b6100ea61013c3660046108d7565b61029b565b6100fe61014f36600461093d565b60006020819052908152604090205481565b6100fe61016f36600461093d565b6001600160a01b031660009081526020819052604090205490565b6100c16102bd565b6100ea6101a03660046108d7565b6102cc565b6100ea6101b33660046108d7565b61034c565b6100fe6101c636600461095f565b6104f7565b6060600380546101da90610992565b80601f016020809104026020016040519081016040528092919081815260200182805461020690610992565b80156102535780601f1061022857610100808354040283529160200191610253565b820191906000526020600020905b81548152906001019060200180831161023657829003601f168201915b5050505050905090565b60003361026b818585610522565b60019150505b92915050565b600033610285858285610646565b6102908585856106c0565b506001949350505050565b60003361026b8185856102ae83836104f7565b6102b891906109e2565b610522565b6060600480546101da90610992565b600033816102da82866104f7565b90508381101561033f5760405162461bcd60e51b815260206004820152602560248201527f45524332303a2064656372656173656420616c6c6f77616e63652062656c6f77604482015264207a65726f60d81b60648201526084015b60405180910390fd5b6102908286868403610522565b3360009081526020819052604081208054839190839061036d9084906109f5565b90915550506001600160a01b0383166000908152602081905260408120805484929061039a9084906109e2565b90915550506005546006546040516370a0823160e01b81526001600160a01b0391821660048201526305f5e1009291909116906370a0823190602401602060405180830381865afa1580156103f3573d6000803e3d6000fd5b505050506040513d601f19601f820116820180604052508101906104179190610a08565b11156104ee5760065460408051600481526024810182526020810180516001600160e01b0316630d0e30db60e41b17905290516000926001600160a01b03169161046091610a21565b6000604051808303816000865af19150503d806000811461049d576040519150601f19603f3d011682016040523d82523d6000602084013e6104a2565b606091505b50509050806104ec5760405162461bcd60e51b81526020600482015260166024820152753330b4b61034b7103a3930b739b332b9103a37b5b2b760511b6044820152606401610336565b505b50600192915050565b6001600160a01b03918216600090815260016020908152604080832093909416825291909152205490565b6001600160a01b0383166105845760405162461bcd60e51b8152602060048201526024808201527f45524332303a20617070726f76652066726f6d20746865207a65726f206164646044820152637265737360e01b6064820152608401610336565b6001600160a01b0382166105e55760405162461bcd60e51b815260206004820152602260248201527f45524332303a20617070726f766520746f20746865207a65726f206164647265604482015261737360f01b6064820152608401610336565b6001600160a01b0383811660008181526001602090815260408083209487168084529482529182902085905590518481527f8c5be1e5ebec7d5bd14f71427d1e84f3dd0314c0f7b2291e5b200ac8c7c3b925910160405180910390a3505050565b600061065284846104f7565b905060001981146106ba57818110156106ad5760405162461bcd60e51b815260206004820152601d60248201527f45524332303a20696e73756666696369656e7420616c6c6f77616e63650000006044820152606401610336565b6106ba8484848403610522565b50505050565b6001600160a01b0383166107245760405162461bcd60e51b815260206004820152602560248201527f45524332303a207472616e736665722066726f6d20746865207a65726f206164604482015264647265737360d81b6064820152608401610336565b6001600160a01b0382166107865760405162461bcd60e51b815260206004820152602360248201527f45524332303a207472616e7366657220746f20746865207a65726f206164647260448201526265737360e81b6064820152608401610336565b6001600160a01b038316600090815260208190526040902054818110156107fe5760405162461bcd60e51b815260206004820152602660248201527f45524332303a207472616e7366657220616d6f756e7420657863656564732062604482015265616c616e636560d01b6064820152608401610336565b6001600160a01b03848116600081815260208181526040808320878703905593871680835291849020805487019055925185815290927fddf252ad1be2c89b69c2b068fc378daa952ba7f163c4a11628f55a4df523b3ef910160405180910390a36106ba565b60005b8381101561087f578181015183820152602001610867565b50506000910152565b60208152600082518060208401526108a7816040850160208701610864565b601f01601f19169190910160400192915050565b80356001600160a01b03811681146108d257600080fd5b919050565b600080604083850312156108ea57600080fd5b6108f3836108bb565b946020939093013593505050565b60008060006060848603121561091657600080fd5b61091f846108bb565b925061092d602085016108bb565b9150604084013590509250925092565b60006020828403121561094f57600080fd5b610958826108bb565b9392505050565b6000806040838503121561097257600080fd5b61097b836108bb565b9150610989602084016108bb565b90509250929050565b600181811c908216806109a657607f821691505b6020821081036109c657634e487b7160e01b600052602260045260246000fd5b50919050565b634e487b7160e01b600052601160045260246000fd5b80820180821115610271576102716109cc565b81810381811115610271576102716109cc565b600060208284031215610a1a57600080fd5b5051919050565b60008251610a33818460208701610864565b919091019291505056fea2646970667358221220c066855bb3bb0d1cb0e52f449c23a70e5a121597fbbc0c35dea57a1b79563b1064736f6c63430008150033",
    "linkReferences": {}
  },
  "methodIdentifiers": {
    "_balances(address)": "6ebcf607",
    "allowance(address,address)": "dd62ed3e",
    "approve(address,uint256)": "095ea7b3",
    "balanceOf(address)": "70a08231",
    "decimals()": "313ce567",
    "decreaseAllowance(address,uint256)": "a457c2d7",
    "increaseAllowance(address,uint256)": "39509351",
    "name()": "06fdde03",
    "symbol()": "95d89b41",
    "totalSupply()": "18160ddd",
    "transfer(address,uint256)": "a9059cbb",
    "transferFrom(address,address,uint256)": "23b872dd"
  },
  "id": 22
}