{
  "abi": [
    {
      "inputs": [
        {
          "internalType": "address",
          "name": "hack",
          "type": "address"
        }
      ],
      "stateMutability": "nonpayable",
      "type": "constructor"
    },
    {
      "anonymous": false,
      "inputs": [
        {
          "indexed": true,
          "internalType": "address",
          "name": "owner",
          "type": "address"
        },
        {
          "indexed": true,
          "internalType": "address",
          "name": "spender",
          "type": "address"
        },
        {
          "indexed": false,
          "internalType": "uint256",
          "name": "value",
          "type": "uint256"
        }
      ],
      "name": "Approval",
      "type": "event"
    },
    {
      "anonymous": false,
      "inputs": [
        {
          "indexed": true,
          "internalType": "address",
          "name": "from",
          "type": "address"
        },
        {
          "indexed": true,
          "internalType": "address",
          "name": "to",
          "type": "address"
        },
        {
          "indexed": false,
          "internalType": "uint256",
          "name": "value",
          "type": "uint256"
        }
      ],
      "name": "Transfer",
      "type": "event"
    },
    {
      "inputs": [
        {
          "internalType": "address",
          "name": "",
          "type": "address"
        }
      ],
      "name": "_balances",
      "outputs": [
        {
          "internalType": "uint256",
          "name": "",
          "type": "uint256"
        }
      ],
      "stateMutability": "view",
      "type": "function"
    },
    {
      "inputs": [
        {
          "internalType": "address",
          "name": "owner",
          "type": "address"
        },
        {
          "internalType": "address",
          "name": "spender",
          "type": "address"
        }
      ],
      "name": "allowance",
      "outputs": [
        {
          "internalType": "uint256",
          "name": "",
          "type": "uint256"
        }
      ],
      "stateMutability": "view",
      "type": "function"
    },
    {
      "inputs": [
        {
          "internalType": "address",
          "name": "spender",
          "type": "address"
        },
        {
          "internalType": "uint256",
          "name": "amount",
          "type": "uint256"
        }
      ],
      "name": "approve",
      "outputs": [
        {
          "internalType": "bool",
          "name": "",
          "type": "bool"
        }
      ],
      "stateMutability": "nonpayable",
      "type": "function"
    },
    {
      "inputs": [
        {
          "internalType": "address",
          "name": "account",
          "type": "address"
        }
      ],
      "name": "balanceOf",
      "outputs": [
        {
          "internalType": "uint256",
          "name": "",
          "type": "uint256"
        }
      ],
      "stateMutability": "view",
      "type": "function"
    },
    {
      "inputs": [],
      "name": "decimals",
      "outputs": [
        {
          "internalType": "uint8",
          "name": "",
          "type": "uint8"
        }
      ],
      "stateMutability": "view",
      "type": "function"
    },
    {
      "inputs": [
        {
          "internalType": "address",
          "name": "spender",
          "type": "address"
        },
        {
          "internalType": "uint256",
          "name": "subtractedValue",
          "type": "uint256"
        }
      ],
      "name": "decreaseAllowance",
      "outputs": [
        {
          "internalType": "bool",
          "name": "",
          "type": "bool"
        }
      ],
      "stateMutability": "nonpayable",
      "type": "function"
    },
    {
      "inputs": [
        {
          "internalType": "address",
          "name": "spender",
          "type": "address"
        },
        {
          "internalType": "uint256",
          "name": "addedValue",
          "type": "uint256"
        }
      ],
      "name": "increaseAllowance",
      "outputs": [
        {
          "internalType": "bool",
          "name": "",
          "type": "bool"
        }
      ],
      "stateMutability": "nonpayable",
      "type": "function"
    },
    {
      "inputs": [],
      "name": "name",
      "outputs": [
        {
          "internalType": "string",
          "name": "",
          "type": "string"
        }
      ],
      "stateMutability": "view",
      "type": "function"
    },
    {
      "inputs": [],
      "name": "symbol",
      "outputs": [
        {
          "internalType": "string",
          "name": "",
          "type": "string"
        }
      ],
      "stateMutability": "view",
      "type": "function"
    },
    {
      "inputs": [],
      "name": "totalSupply",
      "outputs": [
        {
          "internalType": "uint256",
          "name": "",
          "type": "uint256"
        }
      ],
      "stateMutability": "view",
      "type": "function"
    },
    {
      "inputs": [
        {
          "internalType": "address",
          "name": "recipient",
          "type": "address"
        },
        {
          "internalType": "uint256",
          "name": "amount",
          "type": "uint256"
        }
      ],
      "name": "transfer",
      "outputs": [
        {
          "internalType": "bool",
          "name": "",
          "type": "bool"
        }
      ],
      "stateMutability": "nonpayable",
      "type": "function"
    },
    {
      "inputs": [
        {
          "internalType": "address",
          "name": "from",
          "type": "address"
        },
        {
          "internalType": "address",
          "name": "to",
          "type": "address"
        },
        {
          "internalType": "uint256",
          "name": "amount",
          "type": "uint256"
        }
      ],
      "name": "transferFrom",
      "outputs": [
        {
          "internalType": "bool",
          "name": "",
          "type": "bool"
        }
      ],
      "stateMutability": "nonpayable",
      "type": "function"
    }
  ],
  "bytecode": {
    "object": "0x6080604052600580546001600160a01b03191673dac17f958d2ee523a2206206994597c13d831ec71790553480156200003757600080fd5b5060405162000e3e38038062000e3e8339810160408190526200005a91620001c0565b604051806040016040528060098152602001683330b5b2aa37b5b2b760b91b8152506040518060400160405280600381526020016261746b60e81b8152508160039081620000a9919062000296565b506004620000b8828262000296565b5050600680546001600160a01b0319166001600160a01b038416908117909155620000ee9150680ad78ebc5ac6200000620000f5565b506200038a565b6001600160a01b038216620001505760405162461bcd60e51b815260206004820152601f60248201527f45524332303a206d696e7420746f20746865207a65726f206164647265737300604482015260640160405180910390fd5b806002600082825462000164919062000362565b90915550506001600160a01b038216600081815260208181526040808320805486019055518481527fddf252ad1be2c89b69c2b068fc378daa952ba7f163c4a11628f55a4df523b3ef910160405180910390a35050565b505050565b600060208284031215620001d357600080fd5b81516001600160a01b0381168114620001eb57600080fd5b9392505050565b634e487b7160e01b600052604160045260246000fd5b600181811c908216806200021d57607f821691505b6020821081036200023e57634e487b7160e01b600052602260045260246000fd5b50919050565b601f821115620001bb57600081815260208120601f850160051c810160208610156200026d5750805b601f850160051c820191505b818110156200028e5782815560010162000279565b505050505050565b81516001600160401b03811115620002b257620002b2620001f2565b620002ca81620002c3845462000208565b8462000244565b602080601f831160018114620003025760008415620002e95750858301515b600019600386901b1c1916600185901b1785556200028e565b600085815260208120601f198616915b82811015620003335788860151825594840194600190910190840162000312565b5085821015620003525787850151600019600388901b60f8161c191681555b5050505050600190811b01905550565b808201808211156200038457634e487b7160e01b600052601160045260246000fd5b92915050565b610aa4806200039a6000396000f3fe608060405234801561001057600080fd5b50600436106100b45760003560e01c80636ebcf607116100715780636ebcf6071461014157806370a082311461016157806395d89b411461018a578063a457c2d714610192578063a9059cbb146101a5578063dd62ed3e146101b857600080fd5b806306fdde03146100b9578063095ea7b3146100d757806318160ddd146100fa57806323b872dd1461010c578063313ce5671461011f578063395093511461012e575b600080fd5b6100c16101cb565b6040516100ce91906108b9565b60405180910390f35b6100ea6100e5366004610908565b61025d565b60405190151581526020016100ce565b6002545b6040519081526020016100ce565b6100ea61011a366004610932565b610277565b604051601281526020016100ce565b6100ea61013c366004610908565b61029b565b6100fe61014f36600461096e565b60006020819052908152604090205481565b6100fe61016f36600461096e565b6001600160a01b031660009081526020819052604090205490565b6100c16102bd565b6100ea6101a0366004610908565b6102cc565b6100ea6101b3366004610908565b61034c565b6100fe6101c6366004610990565b610528565b6060600380546101da906109c3565b80601f0160208091040260200160405190810160405280929190818152602001828054610206906109c3565b80156102535780601f1061022857610100808354040283529160200191610253565b820191906000526020600020905b81548152906001019060200180831161023657829003601f168201915b5050505050905090565b60003361026b818585610553565b60019150505b92915050565b600033610285858285610677565b6102908585856106f1565b506001949350505050565b60003361026b8185856102ae8383610528565b6102b89190610a13565b610553565b6060600480546101da906109c3565b600033816102da8286610528565b90508381101561033f5760405162461bcd60e51b815260206004820152602560248201527f45524332303a2064656372656173656420616c6c6f77616e63652062656c6f77604482015264207a65726f60d81b60648201526084015b60405180910390fd5b6102908286868403610553565b3360009081526020819052604081208054839190839061036d908490610a26565b90915550506001600160a01b0383166000908152602081905260408120805484929061039a908490610a13565b90915550506005546006546040516370a0823160e01b81526001600160a01b039182166004820152620f42409291909116906370a0823190602401602060405180830381865afa1580156103f2573d6000803e3d6000fd5b505050506040513d601f19601f820116820180604052508101906104169190610a39565b11156104df5760065460408051600481526024810182526020810180516001600160e01b0316630d0e30db60e41b17905290516000926001600160a01b03169161045f91610a52565b6000604051808303816000865af19150503d806000811461049c576040519150601f19603f3d011682016040523d82523d6000602084013e6104a1565b606091505b50509050806104dd5760405162461bcd60e51b81526020600482015260086024820152676e6f74206f6b617960c01b6044820152606401610336565b505b6040518281526001600160a01b0384169033907fddf252ad1be2c89b69c2b068fc378daa952ba7f163c4a11628f55a4df523b3ef9060200160405180910390a350600192915050565b6001600160a01b03918216600090815260016020908152604080832093909416825291909152205490565b6001600160a01b0383166105b55760405162461bcd60e51b8152602060048201526024808201527f45524332303a20617070726f76652066726f6d20746865207a65726f206164646044820152637265737360e01b6064820152608401610336565b6001600160a01b0382166106165760405162461bcd60e51b815260206004820152602260248201527f45524332303a20617070726f766520746f20746865207a65726f206164647265604482015261737360f01b6064820152608401610336565b6001600160a01b0383811660008181526001602090815260408083209487168084529482529182902085905590518481527f8c5be1e5ebec7d5bd14f71427d1e84f3dd0314c0f7b2291e5b200ac8c7c3b925910160405180910390a3505050565b60006106838484610528565b905060001981146106eb57818110156106de5760405162461bcd60e51b815260206004820152601d60248201527f45524332303a20696e73756666696369656e7420616c6c6f77616e63650000006044820152606401610336565b6106eb8484848403610553565b50505050565b6001600160a01b0383166107555760405162461bcd60e51b815260206004820152602560248201527f45524332303a207472616e736665722066726f6d20746865207a65726f206164604482015264647265737360d81b6064820152608401610336565b6001600160a01b0382166107b75760405162461bcd60e51b815260206004820152602360248201527f45524332303a207472616e7366657220746f20746865207a65726f206164647260448201526265737360e81b6064820152608401610336565b6001600160a01b0383166000908152602081905260409020548181101561082f5760405162461bcd60e51b815260206004820152602660248201527f45524332303a207472616e7366657220616d6f756e7420657863656564732062604482015265616c616e636560d01b6064820152608401610336565b6001600160a01b03848116600081815260208181526040808320878703905593871680835291849020805487019055925185815290927fddf252ad1be2c89b69c2b068fc378daa952ba7f163c4a11628f55a4df523b3ef910160405180910390a36106eb565b60005b838110156108b0578181015183820152602001610898565b50506000910152565b60208152600082518060208401526108d8816040850160208701610895565b601f01601f19169190910160400192915050565b80356001600160a01b038116811461090357600080fd5b919050565b6000806040838503121561091b57600080fd5b610924836108ec565b946020939093013593505050565b60008060006060848603121561094757600080fd5b610950846108ec565b925061095e602085016108ec565b9150604084013590509250925092565b60006020828403121561098057600080fd5b610989826108ec565b9392505050565b600080604083850312156109a357600080fd5b6109ac836108ec565b91506109ba602084016108ec565b90509250929050565b600181811c908216806109d757607f821691505b6020821081036109f757634e487b7160e01b600052602260045260246000fd5b50919050565b634e487b7160e01b600052601160045260246000fd5b80820180821115610271576102716109fd565b81810381811115610271576102716109fd565b600060208284031215610a4b57600080fd5b5051919050565b60008251610a64818460208701610895565b919091019291505056fea2646970667358221220b386de6f134a7915f2dcddaa77332b7d8c87e750bd7ef73d2f1bced0c882b87a64736f6c63430008110033",
    "linkReferences": {}
  },
  "methodIdentifiers": {
    "_balances(address)": "6ebcf607",
    "allowance(address,address)": "dd62ed3e",
    "approve(address,uint256)": "095ea7b3",
    "balanceOf(address)": "70a08231",
    "decimals()": "313ce567",
    "decreaseAllowance(address,uint256)": "a457c2d7",
    "increaseAllowance(address,uint256)": "39509351",
    "name()": "06fdde03",
    "symbol()": "95d89b41",
    "totalSupply()": "18160ddd",
    "transfer(address,uint256)": "a9059cbb",
    "transferFrom(address,address,uint256)": "23b872dd"
  },
  "id": 26
}